{
  "_format": "hh-sol-artifact-1",
  "contractName": "DrugBatchRegistry",
  "sourceName": "contracts/DrugBatchRegistry.sol",
  "abi": [
    {
      "inputs": [
        {
          "internalType": "address",
          "name": "accessControlAddr",
          "type": "address"
        }
      ],
      "stateMutability": "nonpayable",
      "type": "constructor"
    },
    {
      "anonymous": false,
      "inputs": [
        {
          "indexed": true,
          "internalType": "bytes32",
          "name": "batchId",
          "type": "bytes32"
        },
        {
          "indexed": false,
          "internalType": "string",
          "name": "ipfsCID",
          "type": "string"
        },
        {
          "indexed": true,
          "internalType": "address",
          "name": "manufacturer",
          "type": "address"
        },
        {
          "indexed": false,
          "internalType": "uint256",
          "name": "timestamp",
          "type": "uint256"
        }
      ],
      "name": "BatchRegistered",
      "type": "event"
    },
    {
      "inputs": [],
      "name": "accessControl",
      "outputs": [
        {
          "internalType": "contract IRoleAccessControl",
          "name": "",
          "type": "address"
        }
      ],
      "stateMutability": "view",
      "type": "function"
    },
    {
      "inputs": [
        {
          "internalType": "bytes32",
          "name": "",
          "type": "bytes32"
        }
      ],
      "name": "batches",
      "outputs": [
        {
          "internalType": "address",
          "name": "manufacturer",
          "type": "address"
        },
        {
          "internalType": "uint96",
          "name": "registeredAt",
          "type": "uint96"
        },
        {
          "internalType": "string",
          "name": "ipfsCID",
          "type": "string"
        },
        {
          "internalType": "bool",
          "name": "exists",
          "type": "bool"
        }
      ],
      "stateMutability": "view",
      "type": "function"
    },
    {
      "inputs": [
        {
          "internalType": "string",
          "name": "batchId",
          "type": "string"
        }
      ],
      "name": "getBatch",
      "outputs": [
        {
          "internalType": "string",
          "name": "ipfsCID",
          "type": "string"
        },
        {
          "internalType": "address",
          "name": "manufacturer",
          "type": "address"
        },
        {
          "internalType": "uint256",
          "name": "registeredAt",
          "type": "uint256"
        }
      ],
      "stateMutability": "view",
      "type": "function"
    },
    {
      "inputs": [
        {
          "internalType": "string",
          "name": "batchId",
          "type": "string"
        },
        {
          "internalType": "string",
          "name": "ipfsCID",
          "type": "string"
        }
      ],
      "name": "registerBatch",
      "outputs": [],
      "stateMutability": "nonpayable",
      "type": "function"
    }
  ],
  "bytecode": "0x60a060405234801561001057600080fd5b50604051610a28380380610a2883398101604081905261002f91610040565b6001600160a01b0316608052610070565b60006020828403121561005257600080fd5b81516001600160a01b038116811461006957600080fd5b9392505050565b608051610997610091600039600081816056015261010401526109976000f3fe608060405234801561001057600080fd5b506004361061004c5760003560e01c806313007d55146100515780632c6b044414610095578063c81e25ab146100aa578063f9ca4274146100cd575b600080fd5b6100787f000000000000000000000000000000000000000000000000000000000000000081565b6040516001600160a01b0390911681526020015b60405180910390f35b6100a86100a3366004610659565b6100ef565b005b6100bd6100b83660046106bd565b61037e565b60405161008c949392919061071c565b6100e06100db366004610762565b610448565b60405161008c9392919061079f565b6040516317d4a49160e01b81523360048201527f00000000000000000000000000000000000000000000000000000000000000006001600160a01b0316906317d4a49190602401602060405180830381865afa158015610153573d6000803e3d6000fd5b505050506040513d601f19601f8201168201806040525081019061017791906107cd565b6101bd5760405162461bcd60e51b81526020600482015260126024820152712737ba10309036b0b73ab330b1ba3ab932b960711b60448201526064015b60405180910390fd5b60008251116102005760405162461bcd60e51b815260206004820152600f60248201526e125b9d985b1a590818985d18da1259608a1b60448201526064016101b4565b60008151116102445760405162461bcd60e51b815260206004820152601060248201526f125b9d985b1a590812541194c810d25160821b60448201526064016101b4565b815160208084019190912060008181529182905260409091206002015460ff16156102b15760405162461bcd60e51b815260206004820152601860248201527f426174636820616c72656164792072656769737465726564000000000000000060448201526064016101b4565b604080516080810182523381526001600160601b0342811660208084019182528385018781526001606086018190526000888152928390529590912084519251909316600160a01b026001600160a01b039290921691909117825551919290919082019061031f908261087f565b50606091909101516002909101805460ff1916911515919091179055604051339082907f1f42ed39ef8cf4ec3d3670888bfbae57521fd067537d4f2e75411b17063fabde90610371908690429061093f565b60405180910390a3505050565b600060208190529081526040902080546001820180546001600160a01b03831693600160a01b9093046001600160601b03169291906103bc906107f6565b80601f01602080910402602001604051908101604052809291908181526020018280546103e8906107f6565b80156104355780601f1061040a57610100808354040283529160200191610435565b820191906000526020600020905b81548152906001019060200180831161041857829003601f168201915b5050506002909301549192505060ff1684565b8051602080830191909120600081815291829052604082206002015460609291829160ff166104b05760405162461bcd60e51b815260206004820152601460248201527310985d18da08191bd95cc81b9bdd08195e1a5cdd60621b60448201526064016101b4565b600081815260208181526040808320815160808101835281546001600160a01b0381168252600160a01b90046001600160601b0316938101939093526001810180549192840191610500906107f6565b80601f016020809104026020016040519081016040528092919081815260200182805461052c906107f6565b80156105795780601f1061054e57610100808354040283529160200191610579565b820191906000526020600020905b81548152906001019060200180831161055c57829003601f168201915b50505091835250506002919091015460ff16151560209182015260408201518251929091015190989197506001600160601b031695509350505050565b634e487b7160e01b600052604160045260246000fd5b600082601f8301126105dd57600080fd5b813567ffffffffffffffff808211156105f8576105f86105b6565b604051601f8301601f19908116603f01168101908282118183101715610620576106206105b6565b8160405283815286602085880101111561063957600080fd5b836020870160208301376000602085830101528094505050505092915050565b6000806040838503121561066c57600080fd5b823567ffffffffffffffff8082111561068457600080fd5b610690868387016105cc565b935060208501359150808211156106a657600080fd5b506106b3858286016105cc565b9150509250929050565b6000602082840312156106cf57600080fd5b5035919050565b6000815180845260005b818110156106fc576020818501810151868301820152016106e0565b506000602082860101526020601f19601f83011685010191505092915050565b6001600160a01b03851681526001600160601b038416602082015260806040820181905260009061074f908301856106d6565b9050821515606083015295945050505050565b60006020828403121561077457600080fd5b813567ffffffffffffffff81111561078b57600080fd5b610797848285016105cc565b949350505050565b6060815260006107b260608301866106d6565b6001600160a01b039490941660208301525060400152919050565b6000602082840312156107df57600080fd5b815180151581146107ef57600080fd5b9392505050565b600181811c9082168061080a57607f821691505b60208210810361082a57634e487b7160e01b600052602260045260246000fd5b50919050565b601f82111561087a57600081815260208120601f850160051c810160208610156108575750805b601f850160051c820191505b8181101561087657828155600101610863565b5050505b505050565b815167ffffffffffffffff811115610899576108996105b6565b6108ad816108a784546107f6565b84610830565b602080601f8311600181146108e257600084156108ca5750858301515b600019600386901b1c1916600185901b178555610876565b600085815260208120601f198616915b82811015610911578886015182559484019460019091019084016108f2565b508582101561092f5787850151600019600388901b60f8161c191681555b5050505050600190811b01905550565b60408152600061095260408301856106d6565b9050826020830152939250505056fea26469706673582212202b1a1615b96293b4f30ce07f020f866fc8fc536d9d4b37711363e004451a996864736f6c63430008140033",
  "linkReferences": {},
  "deployedLinkReferences": {}
}