{
  "_format": "hh-sol-artifact-1",
  "contractName": "ZKCredentialIssuer",
  "sourceName": "contracts/ZKCredentialIssuer.sol",
  "abi": [
    {
      "inputs": [
        {
          "internalType": "address",
          "name": "accessControlAddr",
          "type": "address"
        }
      ],
      "stateMutability": "nonpayable",
      "type": "constructor"
    },
    {
      "anonymous": false,
      "inputs": [
        {
          "indexed": true,
          "internalType": "bytes32",
          "name": "credentialHash",
          "type": "bytes32"
        },
        {
          "indexed": false,
          "internalType": "string",
          "name": "schema",
          "type": "string"
        },
        {
          "indexed": true,
          "internalType": "address",
          "name": "subject",
          "type": "address"
        },
        {
          "indexed": true,
          "internalType": "address",
          "name": "issuer",
          "type": "address"
        },
        {
          "indexed": false,
          "internalType": "uint256",
          "name": "issuedAt",
          "type": "uint256"
        }
      ],
      "name": "CredentialIssued",
      "type": "event"
    },
    {
      "inputs": [],
      "name": "accessControl",
      "outputs": [
        {
          "internalType": "contract IRoleAccessControl",
          "name": "",
          "type": "address"
        }
      ],
      "stateMutability": "view",
      "type": "function"
    },
    {
      "inputs": [
        {
          "internalType": "bytes32",
          "name": "credentialHash",
          "type": "bytes32"
        },
        {
          "internalType": "string",
          "name": "schema",
          "type": "string"
        },
        {
          "internalType": "address",
          "name": "subject",
          "type": "address"
        }
      ],
      "name": "issueCredentialHash",
      "outputs": [],
      "stateMutability": "nonpayable",
      "type": "function"
    },
    {
      "inputs": [
        {
          "internalType": "bytes32",
          "name": "",
          "type": "bytes32"
        }
      ],
      "name": "issuedCredentials",
      "outputs": [
        {
          "internalType": "address",
          "name": "subject",
          "type": "address"
        },
        {
          "internalType": "address",
          "name": "issuer",
          "type": "address"
        },
        {
          "internalType": "uint96",
          "name": "issuedAt",
          "type": "uint96"
        },
        {
          "internalType": "string",
          "name": "schema",
          "type": "string"
        }
      ],
      "stateMutability": "view",
      "type": "function"
    },
    {
      "inputs": [
        {
          "internalType": "bytes32",
          "name": "credentialHash",
          "type": "bytes32"
        }
      ],
      "name": "verifyCredentialHash",
      "outputs": [
        {
          "internalType": "bool",
          "name": "",
          "type": "bool"
        }
      ],
      "stateMutability": "view",
      "type": "function"
    }
  ],
  "bytecode": "0x60a060405234801561001057600080fd5b5060405161099438038061099483398101604081905261002f91610040565b6001600160a01b0316608052610070565b60006020828403121561005257600080fd5b81516001600160a01b038116811461006957600080fd5b9392505050565b6080516108f561009f600039600081816056015281816101f201528181610280015261030e01526108f56000f3fe608060405234801561001057600080fd5b506004361061004c5760003560e01c806313007d551461005157806350333c6d14610095578063507b64cc146100b8578063b51eed2c146100cd575b600080fd5b6100787f000000000000000000000000000000000000000000000000000000000000000081565b6040516001600160a01b0390911681526020015b60405180910390f35b6100a86100a336600461058a565b610112565b60405161008c94939291906105e9565b6100cb6100c6366004610660565b6101dd565b005b6101026100db36600461058a565b600090815260208190526040902060010154600160a01b90046001600160601b0316151590565b604051901515815260200161008c565b6000602081905290815260409020805460018201546002830180546001600160a01b039384169493831693600160a01b9093046001600160601b031692919061015a9061072b565b80601f01602080910402602001604051908101604052809291908181526020018280546101869061072b565b80156101d35780601f106101a8576101008083540402835291602001916101d3565b820191906000526020600020905b8154815290600101906020018083116101b657829003601f168201915b5050505050905084565b604051634cb2206360e11b81523360048201527f00000000000000000000000000000000000000000000000000000000000000006001600160a01b03169063996440c690602401602060405180830381865afa158015610241573d6000803e3d6000fd5b505050506040513d601f19601f820116820180604052508101906102659190610765565b806102f357506040516317d4a49160e01b81523360048201527f00000000000000000000000000000000000000000000000000000000000000006001600160a01b0316906317d4a49190602401602060405180830381865afa1580156102cf573d6000803e3d6000fd5b505050506040513d601f19601f820116820180604052508101906102f39190610765565b80610381575060405163dfb0fda360e01b81523360048201527f00000000000000000000000000000000000000000000000000000000000000006001600160a01b03169063dfb0fda390602401602060405180830381865afa15801561035d573d6000803e3d6000fd5b505050506040513d601f19601f820116820180604052508101906103819190610765565b6103ca5760405162461bcd60e51b81526020600482015260156024820152742737ba1030baba3437b934bd32b21034b9b9bab2b960591b60448201526064015b60405180910390fd5b826104065760405162461bcd60e51b815260206004820152600c60248201526b092dcecc2d8d2c840d0c2e6d60a31b60448201526064016103c1565b6001600160a01b03811661044e5760405162461bcd60e51b815260206004820152600f60248201526e125b9d985b1a59081cdd589a9958dd608a1b60448201526064016103c1565b600083815260208190526040902060010154600160a01b90046001600160601b0316156104ae5760405162461bcd60e51b815260206004820152600e60248201526d105b1c9958591e481a5cdcdd595960921b60448201526064016103c1565b604080516080810182526001600160a01b0380841682523360208084019182526001600160601b034281168587019081526060860189815260008b81529384905296909220855181549086166001600160a01b03199091161781559251915116600160a01b0292169190911760018201559151909190600282019061053390826107dd565b50905050336001600160a01b0316816001600160a01b0316847f167a8305f52644977fb62f066b6a3d3e8626a351a2c4ec508ccad3700376cd86854260405161057d92919061089d565b60405180910390a4505050565b60006020828403121561059c57600080fd5b5035919050565b6000815180845260005b818110156105c9576020818501810151868301820152016105ad565b506000602082860101526020601f19601f83011685010191505092915050565b6001600160a01b038581168252841660208201526001600160601b0383166040820152608060608201819052600090610624908301846105a3565b9695505050505050565b634e487b7160e01b600052604160045260246000fd5b80356001600160a01b038116811461065b57600080fd5b919050565b60008060006060848603121561067557600080fd5b83359250602084013567ffffffffffffffff8082111561069457600080fd5b818601915086601f8301126106a857600080fd5b8135818111156106ba576106ba61062e565b604051601f8201601f19908116603f011681019083821181831017156106e2576106e261062e565b816040528281528960208487010111156106fb57600080fd5b82602086016020830137600060208483010152809650505050505061072260408501610644565b90509250925092565b600181811c9082168061073f57607f821691505b60208210810361075f57634e487b7160e01b600052602260045260246000fd5b50919050565b60006020828403121561077757600080fd5b8151801515811461078757600080fd5b9392505050565b601f8211156107d857600081815260208120601f850160051c810160208610156107b55750805b601f850160051c820191505b818110156107d4578281556001016107c1565b5050505b505050565b815167ffffffffffffffff8111156107f7576107f761062e565b61080b81610805845461072b565b8461078e565b602080601f83116001811461084057600084156108285750858301515b600019600386901b1c1916600185901b1785556107d4565b600085815260208120601f198616915b8281101561086f57888601518255948401946001909101908401610850565b508582101561088d5787850151600019600388901b60f8161c191681555b5050505050600190811b01905550565b6040815260006108b060408301856105a3565b9050826020830152939250505056fea2646970667358221220588998e08a8ddf3e82b4fdff7c0b3a5ec58221eaece753d354ace445e81d44ba64736f6c63430008140033",
  "linkReferences": {},
  "deployedLinkReferences": {}
}